{
  "contractName": "KYC",
  "abi": [
    {
      "inputs": [],
      "stateMutability": "nonpayable",
      "type": "constructor"
    },
    {
      "anonymous": false,
      "inputs": [
        {
          "indexed": false,
          "internalType": "address",
          "name": "userID",
          "type": "address"
        },
        {
          "indexed": false,
          "internalType": "string",
          "name": "report_uri",
          "type": "string"
        }
      ],
      "name": "ChangeClientInfo",
      "type": "event"
    },
    {
      "anonymous": false,
      "inputs": [
        {
          "indexed": false,
          "internalType": "address",
          "name": "client",
          "type": "address"
        },
        {
          "indexed": false,
          "internalType": "uint256",
          "name": "clientend_date",
          "type": "uint256"
        }
      ],
      "name": "FlagExpiringKYC",
      "type": "event"
    },
    {
      "anonymous": false,
      "inputs": [
        {
          "indexed": false,
          "internalType": "address",
          "name": "userID",
          "type": "address"
        },
        {
          "indexed": false,
          "internalType": "string",
          "name": "report_uri",
          "type": "string"
        }
      ],
      "name": "NewClient",
      "type": "event"
    },
    {
      "inputs": [
        {
          "internalType": "address",
          "name": "",
          "type": "address"
        }
      ],
      "name": "Clientdatabase",
      "outputs": [
        {
          "internalType": "address",
          "name": "userID",
          "type": "address"
        },
        {
          "internalType": "string",
          "name": "report_uri",
          "type": "string"
        },
        {
          "internalType": "bool",
          "name": "used",
          "type": "bool"
        },
        {
          "internalType": "uint256",
          "name": "end_date",
          "type": "uint256"
        },
        {
          "internalType": "string",
          "name": "zkp_proof",
          "type": "string"
        }
      ],
      "stateMutability": "view",
      "type": "function",
      "constant": true
    },
    {
      "inputs": [],
      "name": "admin",
      "outputs": [
        {
          "internalType": "address",
          "name": "",
          "type": "address"
        }
      ],
      "stateMutability": "view",
      "type": "function",
      "constant": true
    },
    {
      "inputs": [
        {
          "internalType": "uint256",
          "name": "",
          "type": "uint256"
        }
      ],
      "name": "clientList",
      "outputs": [
        {
          "internalType": "address",
          "name": "",
          "type": "address"
        }
      ],
      "stateMutability": "view",
      "type": "function",
      "constant": true
    },
    {
      "inputs": [
        {
          "internalType": "uint256",
          "name": "age",
          "type": "uint256"
        }
      ],
      "name": "simpleHash",
      "outputs": [
        {
          "internalType": "string",
          "name": "",
          "type": "string"
        }
      ],
      "stateMutability": "view",
      "type": "function",
      "constant": true
    },
    {
      "inputs": [
        {
          "internalType": "address",
          "name": "userID",
          "type": "address"
        },
        {
          "internalType": "string",
          "name": "report_uri",
          "type": "string"
        },
        {
          "internalType": "string",
          "name": "zkp_proof",
          "type": "string"
        }
      ],
      "name": "registerKYC",
      "outputs": [
        {
          "internalType": "bool",
          "name": "",
          "type": "bool"
        }
      ],
      "stateMutability": "nonpayable",
      "type": "function"
    },
    {
      "inputs": [
        {
          "internalType": "address",
          "name": "userID",
          "type": "address"
        },
        {
          "internalType": "string",
          "name": "newreport_uri",
          "type": "string"
        }
      ],
      "name": "updateKYC",
      "outputs": [
        {
          "internalType": "string",
          "name": "",
          "type": "string"
        }
      ],
      "stateMutability": "nonpayable",
      "type": "function"
    },
    {
      "inputs": [
        {
          "internalType": "address",
          "name": "userID",
          "type": "address"
        }
      ],
      "name": "checkValidity",
      "outputs": [
        {
          "internalType": "string",
          "name": "",
          "type": "string"
        }
      ],
      "stateMutability": "view",
      "type": "function",
      "constant": true
    },
    {
      "inputs": [],
      "name": "getClientCount",
      "outputs": [
        {
          "internalType": "uint256",
          "name": "count",
          "type": "uint256"
        }
      ],
      "stateMutability": "view",
      "type": "function",
      "constant": true
    },
    {
      "inputs": [],
      "name": "clientLoop",
      "outputs": [],
      "stateMutability": "nonpayable",
      "type": "function"
    },
    {
      "inputs": [
        {
          "internalType": "address",
          "name": "userID",
          "type": "address"
        }
      ],
      "name": "verifyAge",
      "outputs": [
        {
          "internalType": "string",
          "name": "",
          "type": "string"
        }
      ],
      "stateMutability": "view",
      "type": "function",
      "constant": true
    }
  ],
  "bytecode": "0x6080604052426002556040518060600160405280603e815260200162001eef603e91396004908162000032919062000302565b503480156200004057600080fd5b5033600360006101000a81548173ffffffffffffffffffffffffffffffffffffffff021916908373ffffffffffffffffffffffffffffffffffffffff160217905550620003e9565b600081519050919050565b7f4e487b7100000000000000000000000000000000000000000000000000000000600052604160045260246000fd5b7f4e487b7100000000000000000000000000000000000000000000000000000000600052602260045260246000fd5b600060028204905060018216806200010a57607f821691505b60208210810362000120576200011f620000c2565b5b50919050565b60008190508160005260206000209050919050565b60006020601f8301049050919050565b600082821b905092915050565b6000600883026200018a7fffffffffffffffffffffffffffffffffffffffffffffffffffffffffffffffff826200014b565b6200019686836200014b565b95508019841693508086168417925050509392505050565b6000819050919050565b6000819050919050565b6000620001e3620001dd620001d784620001ae565b620001b8565b620001ae565b9050919050565b6000819050919050565b620001ff83620001c2565b620002176200020e82620001ea565b84845462000158565b825550505050565b600090565b6200022e6200021f565b6200023b818484620001f4565b505050565b5b8181101562000263576200025760008262000224565b60018101905062000241565b5050565b601f821115620002b2576200027c8162000126565b62000287846200013b565b8101602085101562000297578190505b620002af620002a6856200013b565b83018262000240565b50505b505050565b600082821c905092915050565b6000620002d760001984600802620002b7565b1980831691505092915050565b6000620002f28383620002c4565b9150826002028217905092915050565b6200030d8262000088565b67ffffffffffffffff81111562000329576200032862000093565b5b620003358254620000f1565b6200034282828562000267565b600060209050601f8311600181146200037a576000841562000365578287015190505b620003718582620002e4565b865550620003e1565b601f1984166200038a8662000126565b60005b82811015620003b4578489015182556001820191506020850194506020810190506200038d565b86831015620003d45784890151620003d0601f891682620002c4565b8355505b6001600288020188555050505b505050505050565b611af680620003f96000396000f3fe608060405234801561001057600080fd5b506004361061009e5760003560e01c80636a2fe7a5116100665780636a2fe7a51461015b578063b2ef42231461018b578063b55a5f14146101bb578063be207787146101eb578063f851a4401461021f5761009e565b8063171ee9f3146100a35780635152115c146100d35780635a81018a146101035780635c5acb86146101215780636a15ceee14610151575b600080fd5b6100bd60048036038101906100b8919061101d565b61023d565b6040516100ca91906110da565b60405180910390f35b6100ed60048036038101906100e89190611132565b610303565b6040516100fa91906110da565b60405180910390f35b61010b610546565b604051610118919061116e565b60405180910390f35b61013b600480360381019061013691906112be565b610553565b6040516101489190611364565b60405180910390f35b6101596107ab565b005b61017560048036038101906101709190611132565b610a85565b604051610182919061138e565b60405180910390f35b6101a560048036038101906101a091906113a9565b610ac4565b6040516101b291906110da565b60405180910390f35b6101d560048036038101906101d0919061101d565b610c20565b6040516101e291906110da565b60405180910390f35b6102056004803603810190610200919061101d565b610dac565b604051610216959493929190611405565b60405180910390f35b610227610f1f565b604051610234919061138e565b60405180910390f35b60606000808373ffffffffffffffffffffffffffffffffffffffff1673ffffffffffffffffffffffffffffffffffffffff168152602001908152602001600020600301544211156102c5576040518060400160405280601781526020017f4b5943207265706f72742068617320457870697265642100000000000000000081525090506102fe565b6040518060400160405280601481526020017f4b5943207265706f72742069732056616c69642100000000000000000000000081525090505b919050565b60606000601283101561034b576040518060400160405280600c81526020017f6167655f62656c6f775f31380000000000000000000000000000000000000000815250610382565b6040518060400160405280600c81526020017f6167655f61626f76655f313800000000000000000000000000000000000000008152505b905060008190506000805b82518110156103ff576d04ee2d6d415b85acef81000000008382815181106103b8576103b7611466565b5b602001015160f81c60f81b60f81c60ff16601f846103d691906114c4565b6103e09190611506565b6103ea9190611569565b915080806103f79061159a565b91505061038d565b506000602067ffffffffffffffff81111561041d5761041c611193565b5b6040519080825280601f01601f19166020018201604052801561044f5781602001600182028036833780820191505090505b50905060005b6020811015610539576000603e8461046d9190611569565b905060048160ff16815461048090611611565b811061048f5761048e611466565b5b8154600116156104ae5790600052602060002090602091828204019190065b9054901a7f0100000000000000000000000000000000000000000000000000000000000000028383815181106104e7576104e6611466565b5b60200101907effffffffffffffffffffffffffffffffffffffffffffffffffffffffffffff1916908160001a905350603e846105239190611642565b93505080806105319061159a565b915050610455565b5080945050505050919050565b6000600180549050905090565b60008060008573ffffffffffffffffffffffffffffffffffffffff1673ffffffffffffffffffffffffffffffffffffffff16815260200190815260200160002060020160009054906101000a900460ff16156105e4576040517f08c379a00000000000000000000000000000000000000000000000000000000081526004016105db906116bf565b60405180910390fd5b7f4f50ec1fd22bf51646b9342c5e5d03342614f3cefb0746d2e7f22bd73285178784846040516106159291906116df565b60405180910390a16040518060a001604052808573ffffffffffffffffffffffffffffffffffffffff1681526020018481526020016001151581526020016301e13380426106639190611506565b8152602001838152506000808673ffffffffffffffffffffffffffffffffffffffff1673ffffffffffffffffffffffffffffffffffffffff16815260200190815260200160002060008201518160000160006101000a81548173ffffffffffffffffffffffffffffffffffffffff021916908373ffffffffffffffffffffffffffffffffffffffff160217905550602082015181600101908161070691906118bb565b5060408201518160020160006101000a81548160ff02191690831515021790555060608201518160030155608082015181600401908161074691906118bb565b5090505061075384610f45565b6000808573ffffffffffffffffffffffffffffffffffffffff1673ffffffffffffffffffffffffffffffffffffffff16815260200190815260200160002060020160009054906101000a900460ff1690509392505050565b600360009054906101000a900473ffffffffffffffffffffffffffffffffffffffff1673ffffffffffffffffffffffffffffffffffffffff163373ffffffffffffffffffffffffffffffffffffffff161461083b576040517f08c379a0000000000000000000000000000000000000000000000000000000008152600401610832906119ff565b60405180910390fd5b60005b600180549050811015610a825762278d004261085a9190611506565b6000806001848154811061087157610870611466565b5b9060005260206000200160009054906101000a900473ffffffffffffffffffffffffffffffffffffffff1673ffffffffffffffffffffffffffffffffffffffff1673ffffffffffffffffffffffffffffffffffffffff16815260200190815260200160002060030154108015610973575062015180426108f19190611506565b6000806001848154811061090857610907611466565b5b9060005260206000200160009054906101000a900473ffffffffffffffffffffffffffffffffffffffff1673ffffffffffffffffffffffffffffffffffffffff1673ffffffffffffffffffffffffffffffffffffffff16815260200190815260200160002060030154115b15610a6f577f1b5704a643da027e21a3d58ff2d26bc3db24c3c2d0a8d4829727479a33bbd190600182815481106109ad576109ac611466565b5b9060005260206000200160009054906101000a900473ffffffffffffffffffffffffffffffffffffffff16600080600185815481106109ef576109ee611466565b5b9060005260206000200160009054906101000a900473ffffffffffffffffffffffffffffffffffffffff1673ffffffffffffffffffffffffffffffffffffffff1673ffffffffffffffffffffffffffffffffffffffff16815260200190815260200160002060030154604051610a66929190611a1f565b60405180910390a15b8080610a7a9061159a565b91505061083e565b50565b60018181548110610a9557600080fd5b906000526020600020016000915054906101000a900473ffffffffffffffffffffffffffffffffffffffff1681565b6060816000808573ffffffffffffffffffffffffffffffffffffffff1673ffffffffffffffffffffffffffffffffffffffff1681526020019081526020016000206001019081610b1491906118bb565b507fbf58b79fbefbdb7290ace7204e8623738f687a5943c1b9305449113c8fdc0a978383604051610b469291906116df565b60405180910390a16000808473ffffffffffffffffffffffffffffffffffffffff1673ffffffffffffffffffffffffffffffffffffffff1681526020019081526020016000206001018054610b9a90611611565b80601f0160208091040260200160405190810160405280929190818152602001828054610bc690611611565b8015610c135780601f10610be857610100808354040283529160200191610c13565b820191906000526020600020905b815481529060010190602001808311610bf657829003601f168201915b5050505050905092915050565b606060008060008473ffffffffffffffffffffffffffffffffffffffff1673ffffffffffffffffffffffffffffffffffffffff1681526020019081526020016000206004018054610c7090611611565b80601f0160208091040260200160405190810160405280929190818152602001828054610c9c90611611565b8015610ce95780601f10610cbe57610100808354040283529160200191610ce9565b820191906000526020600020905b815481529060010190602001808311610ccc57829003601f168201915b50505050509050610cfa6012610303565b604051602001610d0a9190611a84565b6040516020818303038152906040528051906020012081604051602001610d319190611a84565b6040516020818303038152906040528051906020012003610d8a576040518060400160405280601d81526020017f56657269666965643a2055736572206973203138206f72206f6c646572000000815250915050610da7565b604051806060016040528060258152602001611a9c602591399150505b919050565b60006020528060005260406000206000915090508060000160009054906101000a900473ffffffffffffffffffffffffffffffffffffffff1690806001018054610df590611611565b80601f0160208091040260200160405190810160405280929190818152602001828054610e2190611611565b8015610e6e5780601f10610e4357610100808354040283529160200191610e6e565b820191906000526020600020905b815481529060010190602001808311610e5157829003601f168201915b5050505050908060020160009054906101000a900460ff1690806003015490806004018054610e9c90611611565b80601f0160208091040260200160405190810160405280929190818152602001828054610ec890611611565b8015610f155780601f10610eea57610100808354040283529160200191610f15565b820191906000526020600020905b815481529060010190602001808311610ef857829003601f168201915b5050505050905085565b600360009054906101000a900473ffffffffffffffffffffffffffffffffffffffff1681565b6001819080600181540180825580915050600190039060005260206000200160009091909190916101000a81548173ffffffffffffffffffffffffffffffffffffffff021916908373ffffffffffffffffffffffffffffffffffffffff16021790555050565b6000604051905090565b600080fd5b600080fd5b600073ffffffffffffffffffffffffffffffffffffffff82169050919050565b6000610fea82610fbf565b9050919050565b610ffa81610fdf565b811461100557600080fd5b50565b60008135905061101781610ff1565b92915050565b60006020828403121561103357611032610fb5565b5b600061104184828501611008565b91505092915050565b600081519050919050565b600082825260208201905092915050565b60005b83811015611084578082015181840152602081019050611069565b60008484015250505050565b6000601f19601f8301169050919050565b60006110ac8261104a565b6110b68185611055565b93506110c6818560208601611066565b6110cf81611090565b840191505092915050565b600060208201905081810360008301526110f481846110a1565b905092915050565b6000819050919050565b61110f816110fc565b811461111a57600080fd5b50565b60008135905061112c81611106565b92915050565b60006020828403121561114857611147610fb5565b5b60006111568482850161111d565b91505092915050565b611168816110fc565b82525050565b6000602082019050611183600083018461115f565b92915050565b600080fd5b600080fd5b7f4e487b7100000000000000000000000000000000000000000000000000000000600052604160045260246000fd5b6111cb82611090565b810181811067ffffffffffffffff821117156111ea576111e9611193565b5b80604052505050565b60006111fd610fab565b905061120982826111c2565b919050565b600067ffffffffffffffff82111561122957611228611193565b5b61123282611090565b9050602081019050919050565b82818337600083830152505050565b600061126161125c8461120e565b6111f3565b90508281526020810184848401111561127d5761127c61118e565b5b61128884828561123f565b509392505050565b600082601f8301126112a5576112a4611189565b5b81356112b584826020860161124e565b91505092915050565b6000806000606084860312156112d7576112d6610fb5565b5b60006112e586828701611008565b935050602084013567ffffffffffffffff81111561130657611305610fba565b5b61131286828701611290565b925050604084013567ffffffffffffffff81111561133357611332610fba565b5b61133f86828701611290565b9150509250925092565b60008115159050919050565b61135e81611349565b82525050565b60006020820190506113796000830184611355565b92915050565b61138881610fdf565b82525050565b60006020820190506113a3600083018461137f565b92915050565b600080604083850312156113c0576113bf610fb5565b5b60006113ce85828601611008565b925050602083013567ffffffffffffffff8111156113ef576113ee610fba565b5b6113fb85828601611290565b9150509250929050565b600060a08201905061141a600083018861137f565b818103602083015261142c81876110a1565b905061143b6040830186611355565b611448606083018561115f565b818103608083015261145a81846110a1565b90509695505050505050565b7f4e487b7100000000000000000000000000000000000000000000000000000000600052603260045260246000fd5b7f4e487b7100000000000000000000000000000000000000000000000000000000600052601160045260246000fd5b60006114cf826110fc565b91506114da836110fc565b92508282026114e8816110fc565b915082820484148315176114ff576114fe611495565b5b5092915050565b6000611511826110fc565b915061151c836110fc565b925082820190508082111561153457611533611495565b5b92915050565b7f4e487b7100000000000000000000000000000000000000000000000000000000600052601260045260246000fd5b6000611574826110fc565b915061157f836110fc565b92508261158f5761158e61153a565b5b828206905092915050565b60006115a5826110fc565b91507fffffffffffffffffffffffffffffffffffffffffffffffffffffffffffffffff82036115d7576115d6611495565b5b600182019050919050565b7f4e487b7100000000000000000000000000000000000000000000000000000000600052602260045260246000fd5b6000600282049050600182168061162957607f821691505b60208210810361163c5761163b6115e2565b5b50919050565b600061164d826110fc565b9150611658836110fc565b9250826116685761166761153a565b5b828204905092915050565b7f4163636f756e7420616c72656164792045786973747300000000000000000000600082015250565b60006116a9601683611055565b91506116b482611673565b602082019050919050565b600060208201905081810360008301526116d88161169c565b9050919050565b60006040820190506116f4600083018561137f565b818103602083015261170681846110a1565b90509392505050565b60008190508160005260206000209050919050565b60006020601f8301049050919050565b600082821b905092915050565b6000600883026117717fffffffffffffffffffffffffffffffffffffffffffffffffffffffffffffffff82611734565b61177b8683611734565b95508019841693508086168417925050509392505050565b6000819050919050565b60006117b86117b36117ae846110fc565b611793565b6110fc565b9050919050565b6000819050919050565b6117d28361179d565b6117e66117de826117bf565b848454611741565b825550505050565b600090565b6117fb6117ee565b6118068184846117c9565b505050565b5b8181101561182a5761181f6000826117f3565b60018101905061180c565b5050565b601f82111561186f576118408161170f565b61184984611724565b81016020851015611858578190505b61186c61186485611724565b83018261180b565b50505b505050565b600082821c905092915050565b600061189260001984600802611874565b1980831691505092915050565b60006118ab8383611881565b9150826002028217905092915050565b6118c48261104a565b67ffffffffffffffff8111156118dd576118dc611193565b5b6118e78254611611565b6118f282828561182e565b600060209050601f8311600181146119255760008415611913578287015190505b61191d858261189f565b865550611985565b601f1984166119338661170f565b60005b8281101561195b57848901518255600182019150602085019450602081019050611936565b868310156119785784890151611974601f891682611881565b8355505b6001600288020188555050505b505050505050565b7f596f7520617265206e6f7420617574686f72697a656420746f2075736520746860008201527f69732066756e6374696f6e000000000000000000000000000000000000000000602082015250565b60006119e9602b83611055565b91506119f48261198d565b604082019050919050565b60006020820190508181036000830152611a18816119dc565b9050919050565b6000604082019050611a34600083018561137f565b611a41602083018461115f565b9392505050565b600081905092915050565b6000611a5e8261104a565b611a688185611a48565b9350611a78818560208601611066565b80840191505092915050565b6000611a908284611a53565b91508190509291505056fe566572696669636174696f6e206661696c65643a205573657220697320756e646572203138a2646970667358221220b2d0310f4512d616015e03646ae33fcd69beddad7044ddb01270f071ab597bc264736f6c634300081100336162636465666768696a6b6c6d6e6f707172737475767778797a4142434445464748494a4b4c4d4e4f505152535455565758595a30313233343536373839",
  "immutableReferences": {},
  "source": "// SPDX-License-Identifier: MIT\r\npragma solidity ^0.8.0;\r\n\r\ncontract KYC {\r\n\r\n    struct Client {\r\n        address userID;\r\n        string report_uri;\r\n        bool used;\r\n        uint end_date;\r\n        string zkp_proof;\r\n    }\r\n    \r\n    // Stores userID => Client\r\n    mapping (address => Client) public Clientdatabase;\r\n    address[] public clientList;   // Create a list to loop through and get expiring KYC reports\r\n    \r\n    uint start_date = block.timestamp; // start date of KYC\r\n    address public admin; // contract administrator\r\n    \r\n    constructor() {\r\n        admin = msg.sender;\r\n    }\r\n    \r\n    // Events\r\n    event NewClient(address userID, string report_uri); \r\n    event ChangeClientInfo(address userID, string report_uri); \r\n    event FlagExpiringKYC(address client, uint clientend_date); \r\n\r\n\r\n    // Characters: Letters + Digits\r\n    string internal characters = \"abcdefghijklmnopqrstuvwxyzABCDEFGHIJKLMNOPQRSTUVWXYZ0123456789\";\r\n\r\n    // Simple hash function to generate a 32-character pseudo-random string\r\n    function simpleHash(uint256 age) public view returns (string memory) {\r\n        string memory input = age >= 18 ? \"age_above_18\" : \"age_below_18\";\r\n        \r\n        bytes memory str = bytes(input);\r\n        uint256 hash = 0;\r\n        for (uint i = 0; i < str.length; i++) {\r\n            hash = (hash * 31 + uint8(str[i])) % (10**32); // Use a multiplier and modulo to get a number\r\n        }\r\n\r\n        bytes memory result = new bytes(32);\r\n        for (uint i = 0; i < 32; i++) {\r\n            uint8 index = uint8(hash % 62); // There are 62 characters (26 + 26 + 10)\r\n            result[i] = bytes(characters)[index];\r\n            hash = hash / 62;  // Update hash to pick the next character\r\n        }\r\n        return string(result);\r\n    }\r\n\r\n    \r\n    // Register KYC\r\n    function registerKYC(address userID, string memory report_uri, string memory zkp_proof) public returns(bool) { \r\n        require(!Clientdatabase[userID].used, \"Account already Exists\");\r\n        \r\n        emit NewClient(userID, report_uri);\r\n       \r\n        Clientdatabase[userID] = Client(userID, report_uri, true, block.timestamp + 365 days, zkp_proof);\r\n        appendClientInfo(userID);\r\n       \r\n       return Clientdatabase[userID].used;\r\n    }\r\n\r\n    // Update KYC\r\n    function updateKYC(address userID, string memory newreport_uri) public returns(string memory) {\r\n        Clientdatabase[userID].report_uri = newreport_uri;\r\n        emit ChangeClientInfo(userID, newreport_uri);\r\n        return Clientdatabase[userID].report_uri;\r\n    }\r\n\r\n    // Check KYC validity\r\n    function checkValidity(address userID) public view returns(string memory) {\r\n        if (block.timestamp > Clientdatabase[userID].end_date) {\r\n            return \"KYC report has Expired!\";\r\n        }\r\n        else {\r\n            return \"KYC report is Valid!\";\r\n        }\r\n    } \r\n\r\n    // Add each new client to the client list\r\n    function appendClientInfo(address client) private {\r\n        clientList.push(client);\r\n    }\r\n\r\n    // Get total client count\r\n    function getClientCount() public view returns(uint count) {\r\n        return clientList.length;\r\n    }\r\n\r\n    // Iterate through client list to get expiring contracts\r\n    function clientLoop() public {  \r\n        require(msg.sender == admin, \"You are not authorized to use this function\");\r\n        \r\n        for (uint i = 0; i < clientList.length; i++) {\r\n            if (Clientdatabase[clientList[i]].end_date < block.timestamp + 30 days && Clientdatabase[clientList[i]].end_date > block.timestamp + 1 days) {\r\n                emit FlagExpiringKYC(clientList[i], Clientdatabase[clientList[i]].end_date);\r\n            }\r\n        }\r\n    }\r\n\r\n\r\n    // Verify the user's age based on ZKP commitment\r\n    function verifyAge(address userID) public view returns (string memory) {\r\n        // Retrieve the client's stored proof\r\n        string memory zkpProof = Clientdatabase[userID].zkp_proof;\r\n        \r\n        // Compare the keccak256 hashes of the stored proof and expected proof for age >= 18\r\n        if (keccak256(abi.encodePacked(zkpProof)) == keccak256(abi.encodePacked(simpleHash(18)))) {\r\n            return \"Verified: User is 18 or older\";\r\n        } else {\r\n            return \"Verification failed: User is under 18\";\r\n        }\r\n    }\r\n}",
  "sourcePath": "C:\\Users\\Pdogg Windows10\\Desktop\\Semester 7\\Cryptocurrencies and Blockchain Technologies\\Blockchain-Based-KYC-with-ZKP-and-IPFS\\contracts\\kyccontract.sol",
  "compiler": {
    "name": "solc",
    "version": "0.8.17+commit.8df45f5f.Emscripten.clang"
  },
  "schemaVersion": "3.4.16",
  "updatedAt": "2024-11-06T19:24:31.160Z",
  "networkType": "ethereum",
  "devdoc": {
    "kind": "dev",
    "methods": {},
    "version": 1
  },
  "userdoc": {
    "kind": "user",
    "methods": {},
    "version": 1
  }
}